HPROCURADURIA GENERAL DEL ESTADO BOLIVAR 010206359100003108131007/06/23000000308942803291
001020635920000042479000001065320770CASTRO HINOJOSA SOLANGGE DEL C          0008868657003291
001020635910000052883000001065320770BERNAL LIZARDI RICARDO ENRIQUE          0016914525003291
001020414360000107068000001065320770FARIAS RIVERO ROSIVIS                   0006954619003291
001020635920000140931000001065320770CASTRO HINOJOSA MAYERLING               0010565869003291
001020414320000846167000001065320770FRANCO ROMERO JOSÉ REINALDO             0010049489003291
001020635980000025483000001065320770ASCANIO ANGEL ANIBAL                    0018237190003291
001020635900000155942000001065320770GUAURA BERTI STEFANY MARIA              0021608801003291
001020635980000048651000001065320770MACHADO ALMADA  MILAGRO DEL C           0011168416003291
001020635960000195795000001065320770ESPINOZA DE REQUENA HAYDELIS            0014044189003291
001020414390000128542000001065320770MARQUINA RAMOS EDUARDO JOSE             0014883663003291
001020414340000728845000001065320770INFANTE BRITO  SIUDY MARELVIS           0013326473003291
001020414300000804141000001065320770LUGO GARCÍA YANIHOT EDUARDO             0030385423003291
001020635980000207670000001065320770TRIAS SALAS CARLA                       0022817345003291
001020635970000052935000001065320770ESPAÑA ANA YECENIA                      0013920259003291
001020635980000073422000001065320770PUERTA MATA RENE RAFAEL                 0008853145003291
001020414330000781442000001065320770CELIS MOISES FRANCISCO                  0027438841003291
001020414370001106217000001065320770INFANTE MARTINEZ CINDY ISAMAR           0023551159003291
001020635990000191977000001065320770SALAZAR RUIZ LEISY LEYSANDER            0017162661003291
001020640530000223405000001065320770RODRIGUEZ MILENIS JOSÉ                  0017633481003291
101020788620100002805000001065321770INFANTE YANITZA MAGDALENA               0017383870003291
001020414380000862235000001065320770PACHECO MAITA AIDA MARÍA                0013657269003291
001020457700000122522000001065320770PEÑALVER DE RANGEL YUTSI DEL            0011202458003291
001020414390000994077000001065320770ZAMORA IBARRA DARWIN JOSE               0028694047003291
001020414300001410864000001065320770IRIARTE LARA YOBEL ALBERTO              0024849503003291
101020457770100634000000001065321770ASCANIO PULIDO JUAN CARLOS              0010049990003291
101020788660100001330000001065321770MORILLO SAAVEDRA LUIS FRANCISC          0025849393003291
001020788690000098232000001065320770SIFONTES ZUNILDE                        0010573385003291
001020635910000444611000001065320770HERNÁNDEZ DIGNA DEL VALLE               0007877725003291
001020414300000822039000001065320770VERA BENAVIDES IVAN JUNIOR              0026744514003291
