HPROCURADURIA GENERAL DEL ESTADO BOLIVAR 010206359100003108131121/08/23000000037488103291
001020635920000042479000000303210770CASTRO HINOJOSA SOLANGGE DEL C          0008868657003291
001020635910000052883000000259680770BERNAL LIZARDI RICARDO ENRIQUE          0016914525003291
001020414360000107068000000257260770FARIAS RIVERO ROSIVIS                   0006954619003291
001020635920000140931000000234330770CASTRO HINOJOSA MAYERLING               0010565869003291
001020635980000025483000000014200770ASCANIO ANGEL ANIBAL                    0018237190003291
001020635900000155942000000237420770GUAURA BERTI STEFANY MARIA              0021608801003291
001020635980000048651000000226830770MACHADO ALMADA  MILAGRO DEL C           0011168416003291
001020635960000195795000000217850770ESPINOZA DE REQUENA HAYDELIS            0014044189003291
001020414390000128542000000232460770MARQUINA RAMOS EDUARDO JOSE             0014883663003291
001020414340000728845000000214210770INFANTE BRITO  SIUDY MARELVIS           0013326473003291
001020414300000804141000000165160770LUGO GARCÍA YANIHOT EDUARDO             0030385423003291
001020635980000207670000000342600770TRIAS SALAS CARLA                       0022817345003291
001020635970000052935000000195000770ESPAÑA ANA YECENIA                      0013920259003291
001020635980000073422000000447000770PUERTA MATA RENE RAFAEL                 0008853145003291
001020414330000781442000000199970770CELIS MOISES FRANCISCO                  0027438841003291
001020414370001106217000000201630770INFANTE MARTINEZ CINDY ISAMAR           0023551159003291
