HPROCURADURIA GENERAL DEL ESTADO BOLIVAR 0102063591000031081312608/08/23000000408784203291
001020635920000042479000001238740770CASTRO HINOJOSA SOLANGGE DEL C          0008868657003291
001020635910000052883000001238740770BERNAL LIZARDI RICARDO ENRIQUE          0016914525003291
001020414360000107068000001238740770FARIAS RIVERO ROSIVIS                   0006954619003291
001020635920000140931000001238740770CASTRO HINOJOSA MAYERLING               0010565869003291
001020414320000846167000001238740770FRANCO ROMERO JOSÉ REINALDO             0010049489003291
001020635900000155942000001238740770GUAURA BERTI STEFANY MARIA              0021608801003291
001020635980000048651000001238740770MACHADO ALMADA  MILAGRO DEL C           0011168416003291
001020635960000195795000001238740770ESPINOZA DE REQUENA HAYDELIS            0014044189003291
001020414390000128542000001238740770MARQUINA RAMOS EDUARDO JOSE             0014883663003291
001020414340000728845000001238740770INFANTE BRITO  SIUDY MARELVIS           0013326473003291
001020414300000804141000001238740770LUGO GARCÍA YANIHOT EDUARDO             0030385423003291
001020635980000207670000001238740770TRIAS SALAS CARLA                       0022817345003291
001020635970000052935000001238740770ESPAÑA ANA YECENIA                      0013920259003291
001020635980000073422000001238740770PUERTA MATA RENE RAFAEL                 0008853145003291
001020414330000781442000001238740770CELIS MOISES FRANCISCO                  0027438841003291
001020414370001106217000001238740770INFANTE MARTINEZ CINDY ISAMAR           0023551159003291
001020635990000191977000001238740770SALAZAR RUIZ LEISY LEYSANDER            0017162661003291
001020640530000223405000001238740770RODRIGUEZ MILENIS JOSÉ                  0017633481003291
101020788620100002805000001238741770INFANTE YANITZA MAGDALENA               0017383870003291
001020414380000862235000001238740770PACHECO MAITA AIDA MARÍA                0013657269003291
001020457700000122522000001238740770PEÑALVER DE RANGEL YUTSI DEL            0011202458003291
001020414390000994077000001238740770ZAMORA IBARRA DARWIN JOSE               0028694047003291
001020414300001410864000001238740770IRIARTE LARA YOBEL ALBERTO              0024849503003291
101020457770100634000000001238741770ASCANIO PULIDO JUAN CARLOS              0010049990003291
101020788660100001330000001238741770MORILLO SAAVEDRA LUIS FRANCISC          0025849393003291
001020788690000098232000001238740770SIFONTES ZUNILDE                        0010573385003291
001020635910000444611000001238740770HERNÁNDEZ DIGNA DEL VALLE               0007877725003291
001020414300000822039000001238740770VERA BENAVIDES IVAN JUNIOR              0026744514003291
101020414310100105306000001238741770YTRIAGO MAST YESSIKA DEL CARME          0019975830003291
001020635980000407836000001238740770VISIER DEDIER KIMBERLY SABINA           0027730163003291
001020414330001551804000001238740770RODRIGUEZ  MENDOZA SCARLETH DE          0031298934003291
001020414380001555839000001238740770CAMARAY EISSER GABRIEL                  0028032172003291
001020635970000622514000001238740770GOMEZ VERA NAIROBI VIRGINIA             0018238207003291
