HPROCURADURIA GENERAL DEL ESTADO BOLIVAR 010206359100003108131219/06/23000000308560003291
001020635920000042479000001064000770CASTRO HINOJOSA SOLANGGE DEL C          0008868657003291
001020635910000052883000001064000770BERNAL LIZARDI RICARDO ENRIQUE          0016914525003291
001020414360000107068000001064000770FARIAS RIVERO ROSIVIS                   0006954619003291
001020635920000140931000001064000770CASTRO HINOJOSA MAYERLING               0010565869003291
001020414320000846167000001064000770FRANCO ROMERO JOSÉ REINALDO             0010049489003291
001020635980000025483000001064000770ASCANIO ANGEL ANIBAL                    0018237190003291
001020635900000155942000001064000770GUAURA BERTI STEFANY MARIA              0021608801003291
001020635980000048651000001064000770MACHADO ALMADA  MILAGRO DEL C           0011168416003291
001020635960000195795000001064000770ESPINOZA DE REQUENA HAYDELIS            0014044189003291
001020414390000128542000001064000770MARQUINA RAMOS EDUARDO JOSE             0014883663003291
001020414340000728845000001064000770INFANTE BRITO  SIUDY MARELVIS           0013326473003291
001020414300000804141000001064000770LUGO GARCÍA YANIHOT EDUARDO             0030385423003291
001020635980000207670000001064000770TRIAS SALAS CARLA                       0022817345003291
001020635970000052935000001064000770ESPAÑA ANA YECENIA                      0013920259003291
001020635980000073422000001064000770PUERTA MATA RENE RAFAEL                 0008853145003291
001020414330000781442000001064000770CELIS MOISES FRANCISCO                  0027438841003291
001020414370001106217000001064000770INFANTE MARTINEZ CINDY ISAMAR           0023551159003291
001020635990000191977000001064000770SALAZAR RUIZ LEISY LEYSANDER            0017162661003291
001020640530000223405000001064000770RODRIGUEZ MILENIS JOSÉ                  0017633481003291
101020788620100002805000001064001770INFANTE YANITZA MAGDALENA               0017383870003291
001020414380000862235000001064000770PACHECO MAITA AIDA MARÍA                0013657269003291
001020457700000122522000001064000770PEÑALVER DE RANGEL YUTSI DEL            0011202458003291
001020414390000994077000001064000770ZAMORA IBARRA DARWIN JOSE               0028694047003291
001020414300001410864000001064000770IRIARTE LARA YOBEL ALBERTO              0024849503003291
101020457770100634000000001064001770ASCANIO PULIDO JUAN CARLOS              0010049990003291
101020788660100001330000001064001770MORILLO SAAVEDRA LUIS FRANCISC          0025849393003291
001020788690000098232000001064000770SIFONTES ZUNILDE                        0010573385003291
001020635910000444611000001064000770HERNÁNDEZ DIGNA DEL VALLE               0007877725003291
001020414300000822039000001064000770VERA BENAVIDES IVAN JUNIOR              0026744514003291
