HPROCURADURIA GENERAL DEL ESTADO BOLIVAR 010206359100003108131322/08/23000000396480003291
001020635920000042479000001239000770CASTRO HINOJOSA SOLANGGE DEL C          0008868657003291
001020635910000052883000001239000770BERNAL LIZARDI RICARDO ENRIQUE          0016914525003291
001020414360000107068000001239000770FARIAS RIVERO ROSIVIS                   0006954619003291
001020635920000140931000001239000770CASTRO HINOJOSA MAYERLING               0010565869003291
001020635900000155942000001239000770GUAURA BERTI STEFANY MARIA              0021608801003291
001020635980000048651000001239000770MACHADO ALMADA  MILAGRO DEL C           0011168416003291
001020635960000195795000001239000770ESPINOZA DE REQUENA HAYDELIS            0014044189003291
001020414390000128542000001239000770MARQUINA RAMOS EDUARDO JOSE             0014883663003291
001020414340000728845000001239000770INFANTE BRITO  SIUDY MARELVIS           0013326473003291
001020414300000804141000001239000770LUGO GARCÍA YANIHOT EDUARDO             0030385423003291
001020635980000207670000001239000770TRIAS SALAS CARLA                       0022817345003291
001020635970000052935000001239000770ESPAÑA ANA YECENIA                      0013920259003291
001020635980000073422000001239000770PUERTA MATA RENE RAFAEL                 0008853145003291
001020414330000781442000001239000770CELIS MOISES FRANCISCO                  0027438841003291
001020414370001106217000001239000770INFANTE MARTINEZ CINDY ISAMAR           0023551159003291
001020635990000191977000001239000770SALAZAR RUIZ LEISY LEYSANDER            0017162661003291
001020640530000223405000001239000770RODRIGUEZ MILENIS JOSÉ                  0017633481003291
101020788620100002805000001239001770INFANTE YANITZA MAGDALENA               0017383870003291
001020414380000862235000001239000770PACHECO MAITA AIDA MARÍA                0013657269003291
001020457700000122522000001239000770PEÑALVER DE RANGEL YUTSI DEL            0011202458003291
001020414390000994077000001239000770ZAMORA IBARRA DARWIN JOSE               0028694047003291
001020414300001410864000001239000770IRIARTE LARA YOBEL ALBERTO              0024849503003291
101020457770100634000000001239001770ASCANIO PULIDO JUAN CARLOS              0010049990003291
101020788660100001330000001239001770MORILLO SAAVEDRA LUIS FRANCISC          0025849393003291
001020788690000098232000001239000770SIFONTES ZUNILDE                        0010573385003291
001020635910000444611000001239000770HERNÁNDEZ DIGNA DEL VALLE               0007877725003291
001020414300000822039000001239000770VERA BENAVIDES IVAN JUNIOR              0026744514003291
101020414310100105306000001239001770YTRIAGO MAST YESSIKA DEL CARME          0019975830003291
001020635980000407836000001239000770VISIER DEDIER KIMBERLY SABINA           0027730163003291
001020414330001551804000001239000770RODRIGUEZ  MENDOZA SCARLETH DE          0031298934003291
001020414380001555839000001239000770CAMARAY EISSER GABRIEL                  0028032172003291
001020635970000622514000001239000770GOMEZ VERA NAIROBI VIRGINIA             0018238207003291
