HPROCURADURIA GENERAL DEL ESTADO BOLIVAR 010206359100003108131313/06/23000000134300003291
001020635920000042479000000700000770CASTRO HINOJOSA SOLANGGE DEL C          0008868657003291
001020635910000052883000000554000770BERNAL LIZARDI RICARDO ENRIQUE          0016914525003291
001020414360000107068000000450000770FARIAS RIVERO ROSIVIS                   0006954619003291
001020635920000140931000000400000770CASTRO HINOJOSA MAYERLING               0010565869003291
001020414320000846167000000708000770FRANCO ROMERO JOSÉ REINALDO             0010049489003291
001020635980000025483000000400000770ASCANIO ANGEL ANIBAL                    0018237190003291
001020635900000155942000000554000770GUAURA BERTI STEFANY MARIA              0021608801003291
001020635980000048651000000400000770MACHADO ALMADA  MILAGRO DEL C           0011168416003291
001020635960000195795000000350000770ESPINOZA DE REQUENA HAYDELIS            0014044189003291
001020414390000128542000000400000770MARQUINA RAMOS EDUARDO JOSE             0014883663003291
001020414340000728845000000504000770INFANTE BRITO  SIUDY MARELVIS           0013326473003291
001020414300000804141000000300000770LUGO GARCÍA YANIHOT EDUARDO             0030385423003291
001020635980000207670000000658000770TRIAS SALAS CARLA                       0022817345003291
001020635970000052935000000658000770ESPAÑA ANA YECENIA                      0013920259003291
001020635980000073422000000708000770PUERTA MATA RENE RAFAEL                 0008853145003291
001020414330000781442000000658000770CELIS MOISES FRANCISCO                  0027438841003291
001020414370001106217000000558000770INFANTE MARTINEZ CINDY ISAMAR           0023551159003291
001020635990000191977000000250000770SALAZAR RUIZ LEISY LEYSANDER            0017162661003291
001020640530000223405000000100000770RODRIGUEZ MILENIS JOSÉ                  0017633481003291
101020788620100002805000000508001770INFANTE YANITZA MAGDALENA               0017383870003291
001020414380000862235000000508000770PACHECO MAITA AIDA MARÍA                0013657269003291
001020457700000122522000000300000770PEÑALVER DE RANGEL YUTSI DEL            0011202458003291
001020414390000994077000000376000770ZAMORA IBARRA DARWIN JOSE               0028694047003291
001020414300001410864000000508000770IRIARTE LARA YOBEL ALBERTO              0024849503003291
101020457770100634000000000504001770ASCANIO PULIDO JUAN CARLOS              0010049990003291
101020788660100001330000000300001770MORILLO SAAVEDRA LUIS FRANCISC          0025849393003291
001020788690000098232000000458000770SIFONTES ZUNILDE                        0010573385003291
001020635910000444611000000458000770HERNÁNDEZ DIGNA DEL VALLE               0007877725003291
001020414300000822039000000200000770VERA BENAVIDES IVAN JUNIOR              0026744514003291
