HPROCURADURIA GENERAL DEL ESTADO BOLIVAR 010206359100003108130103/08/23000000054422303291
001020635920000042479000000301080770CASTRO HINOJOSA SOLANGGE DEL C          0008868657003291
001020635910000052883000000257650770BERNAL LIZARDI RICARDO ENRIQUE          0016914525003291
001020414360000107068000000255310770FARIAS RIVERO ROSIVIS                   0006954619003291
001020635920000140931000000232380770CASTRO HINOJOSA MAYERLING               0010565869003291
001020635980000025483000000014130770ASCANIO ANGEL ANIBAL                    0018237190003291
001020635900000155942000000235470770GUAURA BERTI STEFANY MARIA              0021608801003291
001020635980000048651000000225020770MACHADO ALMADA  MILAGRO DEL C           0011168416003291
001020635960000195795000000216050770ESPINOZA DE REQUENA HAYDELIS            0014044189003291
001020414390000128542000000230660770MARQUINA RAMOS EDUARDO JOSE             0014883663003291
001020414340000728845000000212410770INFANTE BRITO  SIUDY MARELVIS           0013326473003291
001020414300000804141000000163350770LUGO GARCÍA YANIHOT EDUARDO             0030385423003291
001020635980000207670000000340650770TRIAS SALAS CARLA                       0022817345003291
001020635970000052935000000193190770ESPAÑA ANA YECENIA                      0013920259003291
001020635980000073422000000445050770PUERTA MATA RENE RAFAEL                 0008853145003291
001020414330000781442000000198170770CELIS MOISES FRANCISCO                  0027438841003291
001020414370001106217000000199820770INFANTE MARTINEZ CINDY ISAMAR           0023551159003291
001020635990000191977000000122630770SALAZAR RUIZ LEISY LEYSANDER            0017162661003291
001020640530000223405000000182540770RODRIGUEZ MILENIS JOSÉ                  0017633481003291
101020788620100002805000000096261770INFANTE YANITZA MAGDALENA               0017383870003291
001020414380000862235000000152820770PACHECO MAITA AIDA MARÍA                0013657269003291
001020457700000122522000000217820770PEÑALVER DE RANGEL YUTSI DEL            0011202458003291
001020414390000994077000000102680770ZAMORA IBARRA DARWIN JOSE               0028694047003291
001020414300001410864000000142320770IRIARTE LARA YOBEL ALBERTO              0024849503003291
101020457770100634000000000107031770ASCANIO PULIDO JUAN CARLOS              0010049990003291
101020788660100001330000000142321770MORILLO SAAVEDRA LUIS FRANCISC          0025849393003291
001020788690000098232000000094840770SIFONTES ZUNILDE                        0010573385003291
001020635910000444611000000073280770HERNÁNDEZ DIGNA DEL VALLE               0007877725003291
001020414300000822039000000093880770VERA BENAVIDES IVAN JUNIOR              0026744514003291
101020414310100105306000000193421770YTRIAGO MAST YESSIKA DEL CARME          0019975830003291
