HPROCURADURIA GENERAL DEL ESTADO BOLIVAR 010206359100003108130108/06/23000000051864803291
001020635920000042479000000303210770CASTRO HINOJOSA SOLANGGE DEL C          0008868657003291
001020635910000052883000000257080770BERNAL LIZARDI RICARDO ENRIQUE          0016914525003291
001020414360000107068000000257260770FARIAS RIVERO ROSIVIS                   0006954619003291
001020635920000140931000000231830770CASTRO HINOJOSA MAYERLING               0010565869003291
001020414320000846167000000239340770FRANCO ROMERO JOSÉ REINALDO             0010049489003291
001020635980000025483000000014200770ASCANIO ANGEL ANIBAL                    0018237190003291
001020635900000155942000000237420770GUAURA BERTI STEFANY MARIA              0021608801003291
001020635980000048651000000226830770MACHADO ALMADA  MILAGRO DEL C           0011168416003291
001020635960000195795000000215860770ESPINOZA DE REQUENA HAYDELIS            0014044189003291
001020414390000128542000000232460770MARQUINA RAMOS EDUARDO JOSE             0014883663003291
001020414340000728845000000212560770INFANTE BRITO  SIUDY MARELVIS           0013326473003291
001020414300000804141000000165160770LUGO GARCÍA YANIHOT EDUARDO             0030385423003291
001020635980000207670000000210900770TRIAS SALAS CARLA                       0022817345003291
001020635970000052935000000195000770ESPAÑA ANA YECENIA                      0013920259003291
001020635980000073422000000240420770PUERTA MATA RENE RAFAEL                 0008853145003291
001020414330000781442000000198310770CELIS MOISES FRANCISCO                  0027438841003291
001020414370001106217000000201630770INFANTE MARTINEZ CINDY ISAMAR           0023551159003291
001020635990000191977000000123810770SALAZAR RUIZ LEISY LEYSANDER            0017162661003291
001020640530000223405000000188490770RODRIGUEZ MILENIS JOSÉ                  0017633481003291
101020788620100002805000000097321770INFANTE YANITZA MAGDALENA               0017383870003291
001020414380000862235000000154000770PACHECO MAITA AIDA MARÍA                0013657269003291
001020457700000122522000000219450770PEÑALVER DE RANGEL YUTSI DEL            0011202458003291
001020414390000994077000000103870770ZAMORA IBARRA DARWIN JOSE               0028694047003291
001020414300001410864000000143950770IRIARTE LARA YOBEL ALBERTO              0024849503003291
101020457770100634000000000108211770ASCANIO PULIDO JUAN CARLOS              0010049990003291
101020788660100001330000000143951770MORILLO SAAVEDRA LUIS FRANCISC          0025849393003291
001020788690000098232000000094920770SIFONTES ZUNILDE                        0010573385003291
001020635910000444611000000074120770HERNÁNDEZ DIGNA DEL VALLE               0007877725003291
001020414300000822039000000094920770VERA BENAVIDES IVAN JUNIOR              0026744514003291
